{"abi":[{"type":"constructor","inputs":[],"stateMutability":"nonpayable"},{"type":"function","name":"emitLogs","inputs":[],"outputs":[],"stateMutability":"nonpayable"},{"type":"event","name":"Bar","inputs":[{"name":"addr","type":"address","indexed":true,"internalType":"address"},{"name":"str","type":"string","indexed":false,"internalType":"string"}],"anonymous":false},{"type":"event","name":"Foo","inputs":[{"name":"addr","type":"address","indexed":true,"internalType":"address"},{"name":"id","type":"uint64","indexed":true,"internalType":"uint64"}],"anonymous":false}],"bytecode":{"object":"0x6080604052348015600f57600080fd5b5060ef8061001e6000396000f3fe6080604052348015600f57600080fd5b506004361060285760003560e01c80637966b4f614602d575b600080fd5b60336035565b005b604051607b9033907fd9e93ef3ac030ca8925f1725575c96d8a49bd825c0843a168225c1bb686bba6790600090a33073ffffffffffffffffffffffffffffffffffffffff167fda343a831f3915a0c465305afdd6b0f1c8a3c85635bb14272bf16b6de3664a5160405160d89060208082526005908201527f612d626172000000000000000000000000000000000000000000000000000000604082015260600190565b60405180910390a256fea164736f6c6343000819000a","linkReferences":{}},"methodIdentifiers":{"emitLogs()":"7966b4f6"},"id":21}